{
  "contractName": "evote",
  "abi": [
    {
      "constant": true,
      "inputs": [],
      "name": "constituency_exist",
      "outputs": [
        {
          "name": "",
          "type": "bool"
        }
      ],
      "payable": false,
      "stateMutability": "view",
      "type": "function",
      "signature": "0x0063f79d"
    },
    {
      "constant": true,
      "inputs": [],
      "name": "candidatesCount",
      "outputs": [
        {
          "name": "",
          "type": "uint256"
        }
      ],
      "payable": false,
      "stateMutability": "view",
      "type": "function",
      "signature": "0x2d35a8a2"
    },
    {
      "constant": true,
      "inputs": [
        {
          "name": "",
          "type": "uint256"
        }
      ],
      "name": "candidates",
      "outputs": [
        {
          "name": "cid",
          "type": "uint256"
        },
        {
          "name": "name",
          "type": "string"
        },
        {
          "name": "voteCount",
          "type": "uint256"
        },
        {
          "name": "constituencyId",
          "type": "uint256"
        },
        {
          "name": "constituencyName",
          "type": "string"
        },
        {
          "name": "party_name",
          "type": "string"
        }
      ],
      "payable": false,
      "stateMutability": "view",
      "type": "function",
      "signature": "0x3477ee2e"
    },
    {
      "constant": true,
      "inputs": [],
      "name": "constituencyCount",
      "outputs": [
        {
          "name": "",
          "type": "uint256"
        }
      ],
      "payable": false,
      "stateMutability": "view",
      "type": "function",
      "signature": "0x6c33f1a8"
    },
    {
      "constant": true,
      "inputs": [
        {
          "name": "",
          "type": "address"
        }
      ],
      "name": "voterids",
      "outputs": [
        {
          "name": "eid",
          "type": "uint256"
        },
        {
          "name": "hash",
          "type": "bytes32"
        }
      ],
      "payable": false,
      "stateMutability": "view",
      "type": "function",
      "signature": "0x7115a50a"
    },
    {
      "constant": true,
      "inputs": [
        {
          "name": "",
          "type": "uint256"
        }
      ],
      "name": "constituencies",
      "outputs": [
        {
          "name": "const_id",
          "type": "uint256"
        },
        {
          "name": "const_name",
          "type": "string"
        },
        {
          "name": "winner_id",
          "type": "uint256"
        }
      ],
      "payable": false,
      "stateMutability": "view",
      "type": "function",
      "signature": "0x9209416a"
    },
    {
      "constant": true,
      "inputs": [
        {
          "name": "",
          "type": "uint256"
        }
      ],
      "name": "voters",
      "outputs": [
        {
          "name": "vid",
          "type": "uint256"
        },
        {
          "name": "voted",
          "type": "bool"
        },
        {
          "name": "vote",
          "type": "uint256"
        },
        {
          "name": "registered",
          "type": "bool"
        },
        {
          "name": "vadd",
          "type": "address"
        },
        {
          "name": "email",
          "type": "string"
        },
        {
          "name": "con_id",
          "type": "uint256"
        },
        {
          "name": "constituency",
          "type": "string"
        }
      ],
      "payable": false,
      "stateMutability": "view",
      "type": "function",
      "signature": "0xda58c7d9"
    },
    {
      "inputs": [],
      "payable": false,
      "stateMutability": "nonpayable",
      "type": "constructor",
      "signature": "constructor"
    },
    {
      "constant": false,
      "inputs": [
        {
          "name": "toCandidate",
          "type": "uint256"
        },
        {
          "name": "_name",
          "type": "string"
        },
        {
          "name": "_constid",
          "type": "uint256"
        },
        {
          "name": "_constname",
          "type": "string"
        },
        {
          "name": "_partyname",
          "type": "string"
        },
        {
          "name": "votes",
          "type": "uint256"
        }
      ],
      "name": "addCandidate",
      "outputs": [],
      "payable": false,
      "stateMutability": "nonpayable",
      "type": "function",
      "signature": "0x9c7f0c34"
    },
    {
      "constant": false,
      "inputs": [
        {
          "name": "toVoter",
          "type": "uint256"
        },
        {
          "name": "em",
          "type": "string"
        },
        {
          "name": "con_id",
          "type": "uint256"
        },
        {
          "name": "cons",
          "type": "string"
        }
      ],
      "name": "giveRightToVote",
      "outputs": [],
      "payable": false,
      "stateMutability": "nonpayable",
      "type": "function",
      "signature": "0x455fe802"
    },
    {
      "constant": false,
      "inputs": [
        {
          "name": "toVoter",
          "type": "uint256"
        }
      ],
      "name": "registerToVote",
      "outputs": [],
      "payable": false,
      "stateMutability": "nonpayable",
      "type": "function",
      "signature": "0x14a25ee9"
    },
    {
      "constant": false,
      "inputs": [
        {
          "name": "_hash",
          "type": "bytes32"
        }
      ],
      "name": "storeHash",
      "outputs": [],
      "payable": false,
      "stateMutability": "nonpayable",
      "type": "function",
      "signature": "0x7fe88885"
    },
    {
      "constant": false,
      "inputs": [
        {
          "name": "toCandidate",
          "type": "uint256"
        }
      ],
      "name": "vote",
      "outputs": [],
      "payable": false,
      "stateMutability": "nonpayable",
      "type": "function",
      "signature": "0x0121b93f"
    },
    {
      "constant": true,
      "inputs": [],
      "name": "winner",
      "outputs": [
        {
          "name": "_winner",
          "type": "uint256"
        }
      ],
      "payable": false,
      "stateMutability": "view",
      "type": "function",
      "signature": "0xdfbf53ae"
    },
    {
      "constant": true,
      "inputs": [
        {
          "name": "s",
          "type": "string"
        }
      ],
      "name": "testKeccak",
      "outputs": [
        {
          "name": "",
          "type": "bytes32"
        }
      ],
      "payable": false,
      "stateMutability": "pure",
      "type": "function",
      "signature": "0x14b05a38"
    }
  ],
  "bytecode": "0x608060405260006001556007805460ff1916905534801561001f57600080fd5b5060008054600160a060020a0319163317905561123b806100416000396000f3fe6080604052600436106100ce5763ffffffff7c010000000000000000000000000000000000000000000000000000000060003504166263f79d81146100d35780630121b93f146100fc57806314a25ee91461012857806314b05a38146101525780632d35a8a2146102175780633477ee2e1461022c578063455fe802146103af5780636c33f1a8146104f85780637115a50a1461050d5780637fe88885146105665780639209416a146105905780639c7f0c3414610640578063da58c7d914610812578063dfbf53ae14610978575b600080fd5b3480156100df57600080fd5b506100e861098d565b604080519115158252519081900360200190f35b34801561010857600080fd5b506101266004803603602081101561011f57600080fd5b5035610996565b005b34801561013457600080fd5b506101266004803603602081101561014b57600080fd5b5035610a20565b34801561015e57600080fd5b506102056004803603602081101561017557600080fd5b81019060208101813564010000000081111561019057600080fd5b8201836020820111156101a257600080fd5b803590602001918460018302840111640100000000831117156101c457600080fd5b91908080601f016020809104026020016040519081016040528093929190818152602001838380828437600092019190915250929550610aa7945050505050565b60408051918252519081900360200190f35b34801561022357600080fd5b50610205610b1e565b34801561023857600080fd5b506102566004803603602081101561024f57600080fd5b5035610b24565b60405180878152602001806020018681526020018581526020018060200180602001848103845289818151815260200191508051906020019080838360005b838110156102ad578181015183820152602001610295565b50505050905090810190601f1680156102da5780820380516001836020036101000a031916815260200191505b50848103835286518152865160209182019188019080838360005b8381101561030d5781810151838201526020016102f5565b50505050905090810190601f16801561033a5780820380516001836020036101000a031916815260200191505b50848103825285518152855160209182019187019080838360005b8381101561036d578181015183820152602001610355565b50505050905090810190601f16801561039a5780820380516001836020036101000a031916815260200191505b50995050505050505050505060405180910390f35b3480156103bb57600080fd5b50610126600480360360808110156103d257600080fd5b813591908101906040810160208201356401000000008111156103f457600080fd5b82018360208201111561040657600080fd5b8035906020019184600183028401116401000000008311171561042857600080fd5b91908080601f0160208091040260200160405190810160405280939291908181526020018383808284376000920191909152509295843595909490935060408101925060200135905064010000000081111561048357600080fd5b82018360208201111561049557600080fd5b803590602001918460018302840111640100000000831117156104b757600080fd5b91908080601f016020809104026020016040519081016040528093929190818152602001838380828437600092019190915250929550610d05945050505050565b34801561050457600080fd5b50610205610d8e565b34801561051957600080fd5b5061054d6004803603602081101561053057600080fd5b503573ffffffffffffffffffffffffffffffffffffffff16610d94565b6040805192835260208301919091528051918290030190f35b34801561057257600080fd5b506101266004803603602081101561058957600080fd5b5035610dad565b34801561059c57600080fd5b506105ba600480360360208110156105b357600080fd5b5035610dc2565b6040518084815260200180602001838152602001828103825284818151815260200191508051906020019080838360005b838110156106035781810151838201526020016105eb565b50505050905090810190601f1680156106305780820380516001836020036101000a031916815260200191505b5094505050505060405180910390f35b34801561064c57600080fd5b50610126600480360360c081101561066357600080fd5b8135919081019060408101602082013564010000000081111561068557600080fd5b82018360208201111561069757600080fd5b803590602001918460018302840111640100000000831117156106b957600080fd5b91908080601f0160208091040260200160405190810160405280939291908181526020018383808284376000920191909152509295843595909490935060408101925060200135905064010000000081111561071457600080fd5b82018360208201111561072657600080fd5b8035906020019184600183028401116401000000008311171561074857600080fd5b91908080601f016020809104026020016040519081016040528093929190818152602001838380828437600092019190915250929594936020810193503591505064010000000081111561079b57600080fd5b8201836020820111156107ad57600080fd5b803590602001918460018302840111640100000000831117156107cf57600080fd5b91908080601f0160208091040260200160405190810160405280939291908181526020018383808284376000920191909152509295505091359250610e6f915050565b34801561081e57600080fd5b5061083c6004803603602081101561083557600080fd5b5035610fb6565b6040518089815260200188151515158152602001878152602001861515151581526020018573ffffffffffffffffffffffffffffffffffffffff1673ffffffffffffffffffffffffffffffffffffffff1681526020018060200184815260200180602001838103835286818151815260200191508051906020019080838360005b838110156108d55781810151838201526020016108bd565b50505050905090810190601f1680156109025780820380516001836020036101000a031916815260200191505b50838103825284518152845160209182019186019080838360005b8381101561093557818101518382015260200161091d565b50505050905090810190601f1680156109625780820380516001836020036101000a031916815260200191505b509a505050505050505050505060405180910390f35b34801561098457600080fd5b50610205611125565b60075460ff1681565b3360009081526003602090815260408083205480845260029092529091206001015460ff16806109d8575060008181526002602052604090206003015460ff16155b156109e35750610a1d565b60009081526002602081815260408084206001818101805460ff191682179055908401869055858552600490925290922001805490910190555b50565b60008181526002602052604090205415801590610a4f575060008181526002602052604090206003015460ff16155b15610a1d57336000818152600360208181526040808420869055948352600290529290209091018054600160ff199091161774ffffffffffffffffffffffffffffffffffffffff001916610100909202919091179055565b6000816040516020018082805190602001908083835b60208310610adc5780518252601f199092019160209182019101610abd565b6001836020036101000a038019825116818451168082178552505050505050905001915050604051602081830303815290604052805190602001209050919050565b60065481565b6004602090815260009182526040918290208054600180830180548651600293821615610100026000190190911692909204601f810186900486028301860190965285825291949293909290830182828015610bc15780601f10610b9657610100808354040283529160200191610bc1565b820191906000526020600020905b815481529060010190602001808311610ba457829003601f168201915b505050505090806002015490806003015490806004018054600181600116156101000203166002900480601f016020809104026020016040519081016040528092919081815260200182805460018160011615610100020316600290048015610c6b5780601f10610c4057610100808354040283529160200191610c6b565b820191906000526020600020905b815481529060010190602001808311610c4e57829003601f168201915b5050505060058301805460408051602060026001851615610100026000190190941693909304601f8101849004840282018401909252818152949594935090830182828015610cfb5780601f10610cd057610100808354040283529160200191610cfb565b820191906000526020600020905b815481529060010190602001808311610cde57829003601f168201915b5050505050905086565b60005473ffffffffffffffffffffffffffffffffffffffff163314610d2957610d88565b600180548101905560008481526002602090815260409091208581558451610d5992600490920191860190611174565b506000848152600260209081526040909120600581018490558251610d8692600690920191840190611174565b505b50505050565b60085481565b6003602052600090815260409020805460019091015482565b33600090815260036020526040902060010155565b6005602090815260009182526040918290208054600180830180548651600293821615610100026000190190911692909204601f810186900486028301860190965285825291949293909290830182828015610e5f5780601f10610e3457610100808354040283529160200191610e5f565b820191906000526020600020905b815481529060010190602001808311610e4257829003601f168201915b5050505050908060020154905083565b60005473ffffffffffffffffffffffffffffffffffffffff163314610e9357610fae565b60068054600190810190915560008781526004602090815260409091208881558751610ec6939190910191880190611174565b50600086815260046020818152604090922060028101849055600381018790558551610efa93919092019190860190611174565b5060008681526004602090815260409091208351610f2092600590920191850190611174565b5060005b600854811015610f5a57600081815260056020526040902054851415610f52576007805460ff191660011790555b600101610f24565b5060075460ff161515610fae5760088054600190810190915560008581526005602090815260409091208681558551610f9a939190910191860190611174565b506000848152600560205260408120600201555b505050505050565b60026020818152600092835260409283902080546001808301548386015460038501546004860180548a516101009682161587026000190190911699909904601f810189900489028a018901909a52898952949860ff938416989297938216969490910473ffffffffffffffffffffffffffffffffffffffff169491928301828280156110845780601f1061105957610100808354040283529160200191611084565b820191906000526020600020905b81548152906001019060200180831161106757829003601f168201915b50505050600583015460068401805460408051602060026001851615610100026000190190941693909304601f8101849004840282018401909252818152959693959394509083018282801561111b5780601f106110f05761010080835404028352916020019161111b565b820191906000526020600020905b8154815290600101906020018083116110fe57829003601f168201915b5050505050905088565b60008060015b60065481101561116f57600081815260046020526040902060020154821015611167576000818152600460205260409020600201549092509050815b60010161112b565b505090565b828054600181600116156101000203166002900490600052602060002090601f016020900481019282601f106111b557805160ff19168380011785556111e2565b828001600101855582156111e2579182015b828111156111e25782518255916020019190600101906111c7565b506111ee9291506111f2565b5090565b61120c91905b808211156111ee57600081556001016111f8565b9056fea165627a7a7230582055d5e44b712c224ca930b30700373a1ac8d4604c435b1efa0f619aa477b088630029",
  "source": "pragma solidity >=0.4.22 <0.6.0;\ncontract evote {\n\n    struct Voter {\n        uint vid;\n        bool voted;\n        uint vote;\n        bool registered;\n        address vadd;\n        string email;\n        uint con_id;\n        string constituency;\n    }\n    \n    struct Candidate {\n        uint cid;\n        string name;\n        uint voteCount;\n        uint constituencyId;\n        string constituencyName;\n        string party_name;\n    }\n    \n    //add secret hash and ref no.\n    struct VoterId {\n        uint eid;\n        bytes32 hash;\n    }\n    \n    \n    struct Constituency {\n        uint const_id;\n        string const_name;\n        uint winner_id;\n        \n    }\n    \n    address admin;\n    uint256 voterCount=0;\n    mapping(uint => Voter) public voters;\n    mapping(address=> VoterId) public voterids;\n    mapping(uint => Candidate) public candidates;\n    mapping(uint => Constituency) public constituencies;\n    uint public candidatesCount;\n    bool public constituency_exist = false;\n    uint public constituencyCount;\n   \n    constructor() public {\n        admin = msg.sender;\n        }\n        \n    function addCandidate (uint toCandidate, string memory _name, uint _constid, string memory _constname, string memory _partyname,uint votes) public {\n         if (msg.sender != admin) return;\n        candidatesCount ++;\n        candidates[toCandidate].cid = toCandidate;\n        candidates[toCandidate].name = _name;\n        candidates[toCandidate].voteCount = votes;\n        candidates[toCandidate].constituencyId = _constid;\n        candidates[toCandidate].constituencyName = _constname;\n        candidates[toCandidate].party_name = _partyname;\n        \n        for(uint i=0;i < constituencyCount; i++)\n        {\n          if(constituencies[i].const_id==_constid)\n          {\n              constituency_exist=true;\n          }\n        }\n        \n        if(constituency_exist==false)\n        {\n            constituencyCount ++;\n            constituencies[_constid].const_id=_constid;\n            constituencies[_constid].const_name = _constname;\n            constituencies[_constid].winner_id = 0;\n            \n        }\n    }\n    \n    function giveRightToVote(uint toVoter, string memory em, uint con_id, string memory cons) public {\n        if (msg.sender != admin) return;\n        voterCount+=1;\n        voters[toVoter].vid = toVoter;\n        voters[toVoter].email = em;\n        voters[toVoter].con_id = con_id;\n        voters[toVoter].constituency = cons;\n        \n    }\n    //need to include otp thing\n    function registerToVote(uint toVoter) public {\n        if(voters[toVoter].vid!=0 && voters[toVoter].registered==false){\n        voterids[msg.sender].eid=toVoter;\n        voters[toVoter].registered=true;\n        voters[toVoter].vadd=msg.sender;\n        }\n        \n    }\n    function storeHash(bytes32 _hash) public{\n        voterids[msg.sender].hash = _hash;\n    }\n    \n    function vote(uint toCandidate) public {\n        uint voterid;\n        voterid=voterids[msg.sender].eid;\n        if (voters[voterid].voted || voters[voterid].registered==false) return;\n        \n        voters[voterid].voted = true;\n        \n        voters[voterid].vote = toCandidate;\n        candidates[toCandidate].voteCount += 1;\n    }\n    \n    function winner() public view returns (uint _winner) {\n        uint256 winnerVoteCount = 0;\n        for (uint cand = 1; cand < candidatesCount; cand++)\n            if (candidates[cand].voteCount > winnerVoteCount) {\n                winnerVoteCount = candidates[cand].voteCount;\n                _winner = cand;\n            }\n    }\n    function testKeccak(string memory s) public pure returns (bytes32) { \n        return keccak256(abi.encodePacked(s)); }\n    \n}",
  "sourcePath": "C:/Users/Darshee Machhar/Dev/BV_Truffle_1/contracts/evote.sol",
  "compiler": {
    "name": "solc",
    "version": "0.5.0+commit.1d4f565a.Emscripten.clang"
  },
  "schemaVersion": "3.0.1",
  "updatedAt": "2020-02-11T10:28:12.594Z",
  "devdoc": {
    "methods": {}
  },
  "userdoc": {
    "methods": {}
  }
}