{
  "contractName": "evote",
  "abi": [
    {
      "constant": true,
      "inputs": [],
      "name": "constituency_exist",
      "outputs": [
        {
          "name": "",
          "type": "bool"
        }
      ],
      "payable": false,
      "stateMutability": "view",
      "type": "function"
    },
    {
      "constant": true,
      "inputs": [],
      "name": "candidatesCount",
      "outputs": [
        {
          "name": "",
          "type": "uint256"
        }
      ],
      "payable": false,
      "stateMutability": "view",
      "type": "function"
    },
    {
      "constant": true,
      "inputs": [
        {
          "name": "",
          "type": "uint256"
        }
      ],
      "name": "candidates",
      "outputs": [
        {
          "name": "cid",
          "type": "uint256"
        },
        {
          "name": "name",
          "type": "string"
        },
        {
          "name": "voteCount",
          "type": "uint256"
        },
        {
          "name": "constituencyId",
          "type": "uint256"
        },
        {
          "name": "constituencyName",
          "type": "string"
        },
        {
          "name": "party_name",
          "type": "string"
        }
      ],
      "payable": false,
      "stateMutability": "view",
      "type": "function"
    },
    {
      "constant": true,
      "inputs": [],
      "name": "voterCount",
      "outputs": [
        {
          "name": "",
          "type": "uint256"
        }
      ],
      "payable": false,
      "stateMutability": "view",
      "type": "function"
    },
    {
      "constant": true,
      "inputs": [],
      "name": "constituencyCount",
      "outputs": [
        {
          "name": "",
          "type": "uint256"
        }
      ],
      "payable": false,
      "stateMutability": "view",
      "type": "function"
    },
    {
      "constant": true,
      "inputs": [
        {
          "name": "",
          "type": "address"
        }
      ],
      "name": "voterids",
      "outputs": [
        {
          "name": "eid",
          "type": "uint256"
        },
        {
          "name": "hash",
          "type": "bytes32"
        }
      ],
      "payable": false,
      "stateMutability": "view",
      "type": "function"
    },
    {
      "constant": true,
      "inputs": [
        {
          "name": "",
          "type": "uint256"
        }
      ],
      "name": "constituencies",
      "outputs": [
        {
          "name": "const_id",
          "type": "uint256"
        },
        {
          "name": "const_name",
          "type": "string"
        },
        {
          "name": "winner_id",
          "type": "uint256"
        }
      ],
      "payable": false,
      "stateMutability": "view",
      "type": "function"
    },
    {
      "constant": true,
      "inputs": [
        {
          "name": "",
          "type": "uint256"
        }
      ],
      "name": "voters",
      "outputs": [
        {
          "name": "vid",
          "type": "uint256"
        },
        {
          "name": "voted",
          "type": "bool"
        },
        {
          "name": "vote",
          "type": "uint256"
        },
        {
          "name": "registered",
          "type": "bool"
        },
        {
          "name": "vadd",
          "type": "address"
        },
        {
          "name": "email",
          "type": "string"
        },
        {
          "name": "con_id",
          "type": "uint256"
        },
        {
          "name": "constituency",
          "type": "string"
        }
      ],
      "payable": false,
      "stateMutability": "view",
      "type": "function"
    },
    {
      "inputs": [],
      "payable": false,
      "stateMutability": "nonpayable",
      "type": "constructor"
    },
    {
      "constant": false,
      "inputs": [
        {
          "name": "toCandidate",
          "type": "uint256"
        },
        {
          "name": "_name",
          "type": "string"
        },
        {
          "name": "_constid",
          "type": "uint256"
        },
        {
          "name": "_constname",
          "type": "string"
        },
        {
          "name": "_partyname",
          "type": "string"
        },
        {
          "name": "votes",
          "type": "uint256"
        }
      ],
      "name": "addCandidate",
      "outputs": [],
      "payable": false,
      "stateMutability": "nonpayable",
      "type": "function"
    },
    {
      "constant": false,
      "inputs": [
        {
          "name": "toVoter",
          "type": "uint256"
        },
        {
          "name": "em",
          "type": "string"
        },
        {
          "name": "con_id",
          "type": "uint256"
        },
        {
          "name": "cons",
          "type": "string"
        }
      ],
      "name": "giveRightToVote",
      "outputs": [],
      "payable": false,
      "stateMutability": "nonpayable",
      "type": "function"
    },
    {
      "constant": false,
      "inputs": [
        {
          "name": "toVoter",
          "type": "uint256"
        }
      ],
      "name": "registerToVote",
      "outputs": [],
      "payable": false,
      "stateMutability": "nonpayable",
      "type": "function"
    },
    {
      "constant": false,
      "inputs": [
        {
          "name": "_hash",
          "type": "bytes32"
        }
      ],
      "name": "storeHash",
      "outputs": [],
      "payable": false,
      "stateMutability": "nonpayable",
      "type": "function"
    },
    {
      "constant": false,
      "inputs": [
        {
          "name": "toCandidate",
          "type": "uint256"
        }
      ],
      "name": "vote",
      "outputs": [],
      "payable": false,
      "stateMutability": "nonpayable",
      "type": "function"
    },
    {
      "constant": true,
      "inputs": [],
      "name": "winner",
      "outputs": [
        {
          "name": "_winner",
          "type": "uint256"
        }
      ],
      "payable": false,
      "stateMutability": "view",
      "type": "function"
    },
    {
      "constant": true,
      "inputs": [
        {
          "name": "s",
          "type": "string"
        }
      ],
      "name": "testKeccak",
      "outputs": [
        {
          "name": "",
          "type": "bytes32"
        }
      ],
      "payable": false,
      "stateMutability": "pure",
      "type": "function"
    }
  ],
  "bytecode": "0x608060405260006001556007805460ff1916905534801561001f57600080fd5b5060008054600160a060020a03191633179055611261806100416000396000f3fe6080604052600436106100d95763ffffffff7c010000000000000000000000000000000000000000000000000000000060003504166263f79d81146100de5780630121b93f1461010757806314a25ee91461013357806314b05a381461015d5780632d35a8a2146102225780633477ee2e1461023757806342169e48146103ba578063455fe802146103cf5780636c33f1a8146105185780637115a50a1461052d5780637fe88885146105865780639209416a146105b05780639c7f0c3414610660578063da58c7d914610832578063dfbf53ae14610998575b600080fd5b3480156100ea57600080fd5b506100f36109ad565b604080519115158252519081900360200190f35b34801561011357600080fd5b506101316004803603602081101561012a57600080fd5b50356109b6565b005b34801561013f57600080fd5b506101316004803603602081101561015657600080fd5b5035610a40565b34801561016957600080fd5b506102106004803603602081101561018057600080fd5b81019060208101813564010000000081111561019b57600080fd5b8201836020820111156101ad57600080fd5b803590602001918460018302840111640100000000831117156101cf57600080fd5b91908080601f016020809104026020016040519081016040528093929190818152602001838380828437600092019190915250929550610ac7945050505050565b60408051918252519081900360200190f35b34801561022e57600080fd5b50610210610b3e565b34801561024357600080fd5b506102616004803603602081101561025a57600080fd5b5035610b44565b60405180878152602001806020018681526020018581526020018060200180602001848103845289818151815260200191508051906020019080838360005b838110156102b85781810151838201526020016102a0565b50505050905090810190601f1680156102e55780820380516001836020036101000a031916815260200191505b50848103835286518152865160209182019188019080838360005b83811015610318578181015183820152602001610300565b50505050905090810190601f1680156103455780820380516001836020036101000a031916815260200191505b50848103825285518152855160209182019187019080838360005b83811015610378578181015183820152602001610360565b50505050905090810190601f1680156103a55780820380516001836020036101000a031916815260200191505b50995050505050505050505060405180910390f35b3480156103c657600080fd5b50610210610d25565b3480156103db57600080fd5b50610131600480360360808110156103f257600080fd5b8135919081019060408101602082013564010000000081111561041457600080fd5b82018360208201111561042657600080fd5b8035906020019184600183028401116401000000008311171561044857600080fd5b91908080601f016020809104026020016040519081016040528093929190818152602001838380828437600092019190915250929584359590949093506040810192506020013590506401000000008111156104a357600080fd5b8201836020820111156104b557600080fd5b803590602001918460018302840111640100000000831117156104d757600080fd5b91908080601f016020809104026020016040519081016040528093929190818152602001838380828437600092019190915250929550610d2b945050505050565b34801561052457600080fd5b50610210610db4565b34801561053957600080fd5b5061056d6004803603602081101561055057600080fd5b503573ffffffffffffffffffffffffffffffffffffffff16610dba565b6040805192835260208301919091528051918290030190f35b34801561059257600080fd5b50610131600480360360208110156105a957600080fd5b5035610dd3565b3480156105bc57600080fd5b506105da600480360360208110156105d357600080fd5b5035610de8565b6040518084815260200180602001838152602001828103825284818151815260200191508051906020019080838360005b8381101561062357818101518382015260200161060b565b50505050905090810190601f1680156106505780820380516001836020036101000a031916815260200191505b5094505050505060405180910390f35b34801561066c57600080fd5b50610131600480360360c081101561068357600080fd5b813591908101906040810160208201356401000000008111156106a557600080fd5b8201836020820111156106b757600080fd5b803590602001918460018302840111640100000000831117156106d957600080fd5b91908080601f0160208091040260200160405190810160405280939291908181526020018383808284376000920191909152509295843595909490935060408101925060200135905064010000000081111561073457600080fd5b82018360208201111561074657600080fd5b8035906020019184600183028401116401000000008311171561076857600080fd5b91908080601f01602080910402602001604051908101604052809392919081815260200183838082843760009201919091525092959493602081019350359150506401000000008111156107bb57600080fd5b8201836020820111156107cd57600080fd5b803590602001918460018302840111640100000000831117156107ef57600080fd5b91908080601f0160208091040260200160405190810160405280939291908181526020018383808284376000920191909152509295505091359250610e95915050565b34801561083e57600080fd5b5061085c6004803603602081101561085557600080fd5b5035610fdc565b6040518089815260200188151515158152602001878152602001861515151581526020018573ffffffffffffffffffffffffffffffffffffffff1673ffffffffffffffffffffffffffffffffffffffff1681526020018060200184815260200180602001838103835286818151815260200191508051906020019080838360005b838110156108f55781810151838201526020016108dd565b50505050905090810190601f1680156109225780820380516001836020036101000a031916815260200191505b50838103825284518152845160209182019186019080838360005b8381101561095557818101518382015260200161093d565b50505050905090810190601f1680156109825780820380516001836020036101000a031916815260200191505b509a505050505050505050505060405180910390f35b3480156109a457600080fd5b5061021061114b565b60075460ff1681565b3360009081526003602090815260408083205480845260029092529091206001015460ff16806109f8575060008181526002602052604090206003015460ff16155b15610a035750610a3d565b60009081526002602081815260408084206001818101805460ff191682179055908401869055858552600490925290922001805490910190555b50565b60008181526002602052604090205415801590610a6f575060008181526002602052604090206003015460ff16155b15610a3d57336000818152600360208181526040808420869055948352600290529290209091018054600160ff199091161774ffffffffffffffffffffffffffffffffffffffff001916610100909202919091179055565b6000816040516020018082805190602001908083835b60208310610afc5780518252601f199092019160209182019101610add565b6001836020036101000a038019825116818451168082178552505050505050905001915050604051602081830303815290604052805190602001209050919050565b60065481565b6004602090815260009182526040918290208054600180830180548651600293821615610100026000190190911692909204601f810186900486028301860190965285825291949293909290830182828015610be15780601f10610bb657610100808354040283529160200191610be1565b820191906000526020600020905b815481529060010190602001808311610bc457829003601f168201915b505050505090806002015490806003015490806004018054600181600116156101000203166002900480601f016020809104026020016040519081016040528092919081815260200182805460018160011615610100020316600290048015610c8b5780601f10610c6057610100808354040283529160200191610c8b565b820191906000526020600020905b815481529060010190602001808311610c6e57829003601f168201915b5050505060058301805460408051602060026001851615610100026000190190941693909304601f8101849004840282018401909252818152949594935090830182828015610d1b5780601f10610cf057610100808354040283529160200191610d1b565b820191906000526020600020905b815481529060010190602001808311610cfe57829003601f168201915b5050505050905086565b60015481565b60005473ffffffffffffffffffffffffffffffffffffffff163314610d4f57610dae565b600180548101905560008481526002602090815260409091208581558451610d7f9260049092019186019061119a565b506000848152600260209081526040909120600581018490558251610dac9260069092019184019061119a565b505b50505050565b60085481565b6003602052600090815260409020805460019091015482565b33600090815260036020526040902060010155565b6005602090815260009182526040918290208054600180830180548651600293821615610100026000190190911692909204601f810186900486028301860190965285825291949293909290830182828015610e855780601f10610e5a57610100808354040283529160200191610e85565b820191906000526020600020905b815481529060010190602001808311610e6857829003601f168201915b5050505050908060020154905083565b60005473ffffffffffffffffffffffffffffffffffffffff163314610eb957610fd4565b60068054600190810190915560008781526004602090815260409091208881558751610eec93919091019188019061119a565b50600086815260046020818152604090922060028101849055600381018790558551610f209391909201919086019061119a565b5060008681526004602090815260409091208351610f469260059092019185019061119a565b5060005b600854811015610f8057600081815260056020526040902054851415610f78576007805460ff191660011790555b600101610f4a565b5060075460ff161515610fd45760088054600190810190915560008581526005602090815260409091208681558551610fc093919091019186019061119a565b506000848152600560205260408120600201555b505050505050565b60026020818152600092835260409283902080546001808301548386015460038501546004860180548a516101009682161587026000190190911699909904601f810189900489028a018901909a52898952949860ff938416989297938216969490910473ffffffffffffffffffffffffffffffffffffffff169491928301828280156110aa5780601f1061107f576101008083540402835291602001916110aa565b820191906000526020600020905b81548152906001019060200180831161108d57829003601f168201915b50505050600583015460068401805460408051602060026001851615610100026000190190941693909304601f810184900484028201840190925281815295969395939450908301828280156111415780601f1061111657610100808354040283529160200191611141565b820191906000526020600020905b81548152906001019060200180831161112457829003601f168201915b5050505050905088565b60008060015b6006548110156111955760008181526004602052604090206002015482101561118d576000818152600460205260409020600201549092509050815b600101611151565b505090565b828054600181600116156101000203166002900490600052602060002090601f016020900481019282601f106111db57805160ff1916838001178555611208565b82800160010185558215611208579182015b828111156112085782518255916020019190600101906111ed565b50611214929150611218565b5090565b61123291905b80821115611214576000815560010161121e565b9056fea165627a7a72305820ce33ff481e0782b160df4ca44697db1267144c06c39f7a07f93c526b893fb7e90029",
  "source": "pragma solidity >=0.4.22 <0.6.0;\ncontract evote {\n\n    struct Voter {\n        uint vid;\n        bool voted;\n        uint vote;\n        bool registered;\n        address vadd;\n        string email;\n        uint con_id;\n        string constituency;\n    }\n    \n    struct Candidate {\n        uint cid;\n        string name;\n        uint voteCount;\n        uint constituencyId;\n        string constituencyName;\n        string party_name;\n    }\n    \n    struct VoterId {\n        uint eid;//ethereum id\n        bytes32 hash;\n    }\n    \n    \n    struct Constituency {\n        uint const_id;\n        string const_name;\n        uint winner_id;\n        \n    }\n    \n    address admin;\n    uint256 public voterCount=0;\n    mapping(uint => Voter) public voters;\n    mapping(address=> VoterId) public voterids;\n    mapping(uint => Candidate) public candidates;\n    mapping(uint => Constituency) public constituencies;\n    uint public candidatesCount;\n    bool public constituency_exist = false;\n    uint public constituencyCount;\n   \n    constructor() public {\n        admin = msg.sender;\n        }\n        \n    function addCandidate (uint toCandidate, string memory _name, uint _constid, string memory _constname, string memory _partyname,uint votes) public {\n         if (msg.sender != admin) return;\n        candidatesCount ++;\n        candidates[toCandidate].cid = toCandidate;\n        candidates[toCandidate].name = _name;\n        candidates[toCandidate].voteCount = votes;\n        candidates[toCandidate].constituencyId = _constid;\n        candidates[toCandidate].constituencyName = _constname;\n        candidates[toCandidate].party_name = _partyname;\n        \n        for(uint i=0;i < constituencyCount; i++)\n        {\n          if(constituencies[i].const_id==_constid)\n          {\n              constituency_exist=true;\n          }\n        }\n        \n        if(constituency_exist==false)\n        {\n            constituencyCount ++;\n            constituencies[_constid].const_id=_constid;\n            constituencies[_constid].const_name = _constname;\n            constituencies[_constid].winner_id = 0;\n            \n        }\n    }\n    \n    function giveRightToVote(uint toVoter, string memory em, uint con_id, string memory cons) public {\n        if (msg.sender != admin) return;\n        voterCount+=1;\n        voters[toVoter].vid = toVoter;\n        voters[toVoter].email = em;\n        voters[toVoter].con_id = con_id;\n        voters[toVoter].constituency = cons;\n        \n    }\n    //need to include otp thing\n    function registerToVote(uint toVoter) public {\n        if(voters[toVoter].vid!=0 && voters[toVoter].registered==false){\n        voterids[msg.sender].eid=toVoter;\n        voters[toVoter].registered=true;\n        voters[toVoter].vadd=msg.sender;\n        }\n        \n    }\n    function storeHash(bytes32 _hash) public{\n        voterids[msg.sender].hash = _hash;\n    }\n    \n    function vote(uint toCandidate) public {\n        uint voterid;\n        voterid=voterids[msg.sender].eid;\n        if (voters[voterid].voted || voters[voterid].registered==false) return;\n        \n        voters[voterid].voted = true;\n        \n        voters[voterid].vote = toCandidate;\n        candidates[toCandidate].voteCount += 1;\n    }\n    \n    function winner() public view returns (uint _winner) {\n        uint256 winnerVoteCount = 0;\n        for (uint cand = 1; cand < candidatesCount; cand++)\n            if (candidates[cand].voteCount > winnerVoteCount) {\n                winnerVoteCount = candidates[cand].voteCount;\n                _winner = cand;\n            }\n    }\n    function testKeccak(string memory s) public pure returns (bytes32) { \n        return keccak256(abi.encodePacked(s)); }\n    \n}",
  "sourcePath": "C:/Users/Darshee Machhar/Dev/BV_Truffle_1/contracts/evote.sol",
  "compiler": {
    "name": "solc",
    "version": "0.5.0+commit.1d4f565a.Emscripten.clang"
  },
  "schemaVersion": "3.0.1",
  "updatedAt": "2020-03-29T16:55:52.182Z",
  "devdoc": {
    "methods": {}
  },
  "userdoc": {
    "methods": {}
  }
}